:0300000002016397
:0C016300787FE4F6D8FD758107020144A6
:1000CA0049204C4F5645204D43552100E68891E77B
:0C00DA0088B1E58D95E78987E69CBA00A7
:0D015500EFD3940040077D6EDDFE1F80F3A8
:01016200227A
:100003007EF8D2B2C2B0E4FDEE3392B1C2B0D2B048
:10001300EE25E0FE0DBD08F0AE075306F0E4FDEE5D
:100023003392B1C2B0D2B0EE25E0FE0DBD08F0AE02
:1000330007EEC454F0FEE4FDEE3392B1C2B0D2B089
:10004300EE25E0FE0DBD08F0C2B27F0A7E0002017C
:010053005557
:100054007EFAD2B2C2B0E4FDEE3392B1C2B0D2B0F5
:10006400EE25E0FE0DBD08F0AE075306F0E4FDEE0C
:100074003392B1C2B0D2B0EE25E0FE0DBD08F0AEB1
:1000840007EEC454F0FEE4FDEE3392B1C2B0D2B038
:10009400EE25E0FE0DBD08F0C2B27F0A7E0002012B
:0100A4005506
:10012F007F80120003E4FCEC9000CA93FF1200548E
:04013F000CBC10F3F1
:010143002299
:1000FF007F801200031200E6FF600C12005474019F
:07010F0029F9E43AFA80EE41
:0101160022C6
:100117007F901200031200E6FF600C120054740176
:0701270029F9E43AFA80EE29
:01012E0022AE
:1000A5007F647E001201557F301200037F0212002B
:1000B500037F061200037F0C1200037F0112000369
:0500C5007F8002000332
:100144001200A512012F7BFF7A0079D612011780C5
:01015400FEAC
:1000E600BB010689828A83E0225002E722BBFE0218
:0900F600E32289828A83E493224B
:00000001FF
