:0300000002000EED
:0C000E00787FE4F6D8FD7581110200C473
:1000C40012001EAB09AD08AF0C1200471200FE80EF
:0100D400F239
:1000D500C0F9A4B0999282F880908883C6A1868ED3
:10001E00D290D2AFD2A9D2AB758911D28CD28E75B5
:10002E008D4B758BFD758C4B758AFDE4F50AF50BC2
:09003E00F508F509F50DF50C2299
:03000B00020109E6
:09010900758C4B758AFD050A3264
:0B00F300E50AB40405E4F50AB290220F
:03001B00020112CD
:09011200758D4B758BFD050B3258
:10007000E50BB41405E4F50B0509E509B40A05E43C
:0F008000F5090508E508B40605050DE4F50822A5
:10008F00EF75F00384AEF0EE7004E5118007BE014A
:0C009F0003ED8001EB9000D593F580226A
:1000AB00EF75F00384AEF0EE700475800122BE0193
:0900BB0004758002227580042204
:0D00E500EFD3940040077E6EDEFE1F80F317
:0100F20022EB
:10004700AC07D2A71200ABC2A7E4F580D2A6AF04D3
:10005700850D1112008FC2A6E4F580050C7F02FE04
:090067001200E51200F302007022
:0B00FE00E508B40605E4F509F508224A
:00000001FF
