:0300000002009665
:0C009600787FE4F6D8FD75810802007246
:10008600C0F9A4B0999282F880908883C6A1868E22
:10000300D3EF9400EE940040147D6E7C00ED1D70E0
:0D001300011CED4C70F7EF1F70E61E80E33E
:0100200022BD
:10005400E4F580D2A7758001C2A7F580D2A6EF90FF
:0E006400008693F580C2A67F057E0002000391
:10007200758920759850758DFD758BFDD2AFD2AC08
:04008200D28E80FE9C
:03002300020026B2
:10002600C0E0C083C082C0D075D000C004C005C087
:1000360006C007C298859908AF08120054D007D0A9
:0E00460006D005D004D0D0D082D083D0E032D6
:00000001FF
