:03000000020133C7
:0C013300787FE4F6D8FD7581070200EC2F
:1000D00049204C4F5645204D43552100E68891E775
:0C00E00088B1E58D95E78987E69CBA00A1
:0D012500EFD3940040077D6EDDFE1F80F3D8
:0101320022AA
:10005A007EF8D2B2C2B0E4FDEE3392B1C2B0D2B0F1
:10006A00EE25E0FE0DBD08F0AE075306F0E4FDEE06
:10007A003392B1C2B0D2B0EE25E0FE0DBD08F0AEAB
:10008A0007EEC454F0FEE4FDEE3392B1C2B0D2B032
:10009A00EE25E0FE0DBD08F0C2B27F0A7E00020125
:0100AA002530
:06000300EC9000D093FF19
:100009007EFAD2B2C2B0E4FDEE3392B1C2B0D2B040
:10001900EE25E0FE0DBD08F0AE075306F0E4FDEE57
:100029003392B1C2B0D2B0EE25E0FE0DBD08F0AEFC
:1000390007EEC454F0FEE4FDEE3392B1C2B0D2B083
:10004900EE25E0FE0DBD08F0C2B27F0A7E00020176
:010059002581
:10010100C374889FFF12005AE4FC1200030CBC1058
:01011100F9F4
:0101120022CA
:10011300C374989FFF12005AE4FC1200030CBC1036
:01012300F9E2
:0101240022B8
:1000AB007F647E001201257F3012005A7F021200FE
:1000BB005A7F0612005A7F0C12005A7F0112005A07
:0500CB007F8002005AD5
:1000EC001200ABE4FBAF03120101AF031201130BBF
:0500FC00BB0FF280FEC5
:00000001FF
