:030000000200AE4D
:0C00AE00787FE4F6D8FD7581080200039D
:1000770049204C4F5645204D435521004F487E207F
:05008700594553210062
:0D005C00E50893FF7E0012009D7F057E00E9
:0D006900EFD3940040077D6EDDFE1F80F395
:010076002267
:10008C00C2B58F80120065D2B47F05120069C2B46C
:01009C002241
:10009D00D2B58F80120065D2B47F05120069C2B44B
:0100AD002230
:10003A00C2A6C2A7C2B47F387E0012008C7F0C7E93
:10004A000012008C7F067E0012008C7F017E000267
:02005A00008C18
:1000030012003A7F807E0012008CE4F5089000779E
:1000130012005C0508E508C3940B40F17FC07E0025
:1000230012008CE4F50890008312005C0508E508D3
:07003300C3940840F180FEB8
:00000001FF
