:03000000020C628D
:0C0C6200787FE4F6D8FD75813D020A3071
:100B370025730A004552524F52210A005468652016
:100B4700766F6C746167652069732025662056008F
:100B5700C0F9A4B0999282F880908883C6A1868E46
:100B67005475726E206F6E206164210A005475728D
:0A0B77006E206F66662061642100A5
:100A3000120B81E50C64017045F50CC2ACD299E54E
:100A40000F1460141460272402702C7BFF7A0B793A
:100A500067120BB7D28C801F7525FF75260B752783
:100A6000747BFF7A0B7937120623C28C80097BFFD7
:100A70007A0B793B120BB73099FDC299D2ACE50BDA
:100A80006401703DF50B120C4C8F11AC11E4120196
:100A9000D6E4FBFA79A07840120026E4FBFA7980CC
:100AA000784312012F12020A8F08C2ACD2997BFF41
:100AB0007A0B79438508251206233099FDC299D215
:090AC000ACAF11120AC9020A339D
:0D000E00EFD3940040077D6EDDFE1F80F3F0
:01001B0022C2
:100B8100E4F580D2A775803FC2A7F580D2A6900B6D
:100B91005793F580C2A6758921758C3C758AB0750D
:100BA1008DFD758BFDD28ED28CD2AFC29FD29ED2DB
:060BB1009CD2A9D2AC2287
:100AC900EF75F06484FEEF75F00A8475F00A84AC62
:100AD900F0EF75F00A84ABF0E4F580D2A7758001D8
:100AE900C2A7F580D2A6AF06EF900B5793F580C247
:100AF900A67F057E0012000EE4F580D2A77580025C
:100B0900C2A7F580D2A6AF04EF93F580C2A67F05F0
:100B190012000EE4F580D2A7758004C2A7F580D231
:0E0B2900A6AF03EF93F580C2A67F0502000E73
:100C4C00D2B600C2B600D2B67590FFD2B700C2B70A
:050C5C0000AF90D2B7CB
:010C61002270
:03000B00020C30B4
:100C3000C0E0C0D0758C3C758AB00509E509B414D4
:0C0C400006750900750B01D0D0D0E03221
:03002300020BE1EC
:100BE100C0E0C0D0C298859910750C01E510B40120
:100BF10005750F00800DE510B40205750F01800326
:080C0100750F03D0D0D0E032E2
:10002600EC4D6011E8497017ED33EC3304600DE4D4
:10003600FCFFFEFD22E933E8330470F80202761273
:10004600024158046009E4CC248150062850090274
:10005600028028400302027DC0E0EB4A7044B9806A
:1000660006D0E0FB02026CEF4E701CBD8008EBFF71
:10007600EAFEE9FD80EBE98DF0A4FEE5F002010F52
:10008600E9CDF9EAFEEBFFEF89F0A4FCE5F0CE89B5
:10009600F0A42EFFE435F0CD89F0A42DFEE435F072
:1000A6008067EF4E7005BD80D780C3EF8BF0A4ACA0
:1000B600F0EE8BF0A42CFCE435F0F8EF8AF0A42CDB
:1000C600E5F038FCE433CB8DF0A42CFCE5F03BF8EE
:1000D600EE8AF0A42CFCE5F038F8E433CF89F0A4DE
:1000E6002CFCE5F038CF3400CE89F0A42FFFE5F0E4
:1000F6003EFEE433C98DF0A42EFEE5F039CD8AF03C
:10010600A42FFFE5F03EFEE43DFD33D0E0FB5007B3
:100116000BBB000F020280EC2CFCEF33FFEE33FE2C
:06012600ED33FD0202585A
:10012C00020280EC5D046005E8590470030202765B
:10013C00120241580460F6EC4860F2EC7004FDFECB
:10014C00FF22C860DB2481C85009C39860025006A6
:10015C0002027D9850CAF582E9294B4A7005AB82A0
:10016C0002026C75F0007C1A7880C3EF9BEE9AED5E
:10017C0099400DC3EF9BFFEE9AFEED99FDE842F01E
:10018C00DC23ACF0D0E0FFD0E0FED0E0FDAB822071
:10019C00E7101BEB60BAEC2CFCEF33FFEE33FEEDFB
:1001AC0033FD020258E803F830E705C0F075F000A3
:1001BC00EF2FFFEE33FEED33FD40B830E7C280AADF
:1001CC0075F020800E75F010800575F0087D007EAE
:1001DC00007F003392D530D50312057DEC334010EF
:1001EC00EF33FFEE33FEED33FDEC33FCD5F0ED22B7
:0E01FC00E5F0247EA2D513CC92E7CDCEFF22F3
:10020A00EDD2E7CD33EC3392D524814006E4FFFEEC
:10021A00FDFC22FCE4CFCECDCC24E0501174FF804B
:10022A00EDC3CC13CCCD13CDCE13CECF13CF0470E8
:07023A00F030D5DE02057D66
:1005C100E5392425F8E60539227822300702782515
:1005D100E475F00112058B0205252000EB7F2ED278
:1005E100008018EF540F2490D43440D4FF30040B12
:1005F100EF24BFB41A0050032461FFE53A600215ED
:100601003A053DE53D7002053C30070D7822E47561
:10061100F00112058BEF02056B020C097403D2077E
:100621008003E4C207F5398B228A238924E4F53A51
:10063100F53CF53DE53A60077F201205FC80F57534
:100641003BFFC201C200C202C203C205C206C20808
:100651001205CAFF700D3007057F0012060DAF3D70
:10066100AE3C22B4255FC2D5C2041205CAFF24D014
:10067100B40A00501A75F00A783A30D50508B6FF69
:100681000106C6A426F620D5047002D20380D9241F
:10069100CFB41A00EF5004C2E5D2040208FAD20125
:1006A10080C6D20080C0D20280BCD2D580BAD20529
:1006B10080B47F201205FC2002077401B53A004086
:1006C100F11205C1FF1205FC020635D208D20680DF
:1006D100951205C1FB1205C1FA1205C1F94A4B7009
:1006E1000679F17A097BFF20022EE53A602A7E0025
:1006F1008E8275830012053E60060EEE653B70F03A
:10070100C2D5EBC0E0EAC0E0E9C0E0EE12095AD080
:10071100E0F9D0E0FAD0E0FB120525FF60AAEBC0BA
:10072100E0EAC0E0E9C0E01205FCD0E02401F9D024
:10073100E03400FAD0E0FBE53B0460DCD53BD98036
:1007410087D20280A212093D60F7E53B70010412D5
:10075100028BA93B600DE53B600914F53B1209E4EE
:10076100EF60F3EA30E702F404C3995077EAF42525
:100771003B0430E701E404F53B800D12093D60C103
:10078100EA053B253B12028BEA7838F630E701E4B3
:10079100253B04D53B042005011412095AE4C0E0AD
:1007A1001209E47838E6601320E70714F61205E42D
:1007B100802204F6D0E014C0E07F001205E4E53B9E
:1007C10060071205DB153B800B3005031205DBD0FA
:1007D100E0020635D0E00480C512093D60A0E53B8A
:1007E1000412028B7838EAF6E53B20050260010429
:0507F100240412095A66
:1007F60074FF04C0E01209E41205E4E53B2005029B
:1008060060031205DBD0E0B53BE87F451205EE78C4
:1008160038E67F2B30E7047F2DF404C0E01205FC98
:10082600D0E075F00A84C0F01205E5D0E01205E5C7
:10083600020635791080027908C206C2088008D2FD
:10084600D5790A8004790AC2D5E53B047002F53BE6
:10085600E4FAFDFEFF1205C1FC7B08200113120518
:10086600C1FD7B1030000A1205C1FE1205C1FF7BD7
:1008760020EC3382D592D55013C3E43000069FFF97
:10088600E49EFEE42001039DFDE49CFCE4CBF8C25B
:1008960001EC700CCFCECDCCE824F8F870F38017BD
:1008A600C3EF33FFEE33FEED33FDEC33FCEB33FBEE
:1008B600994002FB0FD8E9EB300105F8D0E0C448B7
:1008C600B201C0E00AEC4D4E4F78207B0070C2EAC0
:1008D600B53B0040BCC0E012095CD0F0D0E020017E
:1008E60004C4C0E0C4B201C0F01205E5D0F0D5F0F2
:1008F600EB02063512059B06D25308395806A34C5F
:10090600069F42083D4F08454408454906B8430836
:100916004B55077C4607DA450746470A115006A796
:100926002D06AB2E06CE2B06AF2306CC2009FA2ABF
:10093600066748000006C6E53BB4FF03753B061292
:1009460005C1FC1205C1FD1205C1FE1205C1FF78E5
:10095600310202BA790AA2D5200314300509B9106A
:10096600020404B9080104A2D5200602500104209D
:1009760002689202B53A005034C0E07F2030031975
:100986007F30A20272067205500F1209B3C202C26C
:1009960006C205C2087F30800F300503E9C0E012A9
:1009A60005FC300503D0E0F9D0E0B53ACC300517A8
:1009B6007F30B9100C1205FC7F583004077F788011
:1009C60003B908031205FC3002057F2D0205FC7FE2
:1009D600202008F87F2B2006F322920280CF7F008A
:1009E600B4070050052431F8E6FF22286E756C6CBA
:1009F6002900D2011205C13001F8C201783A30D57A
:100A06000108F60206672D504349581205C1240312
:100A1600B405004001E4900A0C931205ED743A12F5
:0A0A260005EDD203753A0402083909
:10024100E9D2E7C933E833F892D5EDD2E7CD33EC03
:0702510033FC5002B2D5227C
:10025800EC30E7100FBF000C0EBE00080DBD000407
:100268000BEB6014A2D5EB13FCED92E7FD2274FFB3
:10027800FCFDFEFF22E480F8A2D574FF13FC7D800C
:03028800E480EF20
:10028B00F920E72824F950037907E4F42402FB183A
:10029B00DBFDE624FB5014E9600DE4F618E604F6EA
:0F02AB00B40A08E4F6D9F57401F60A22C2D52286
:1002BA00ED33EC3392D5FA602AB4FF33EDC2E77B13
:1002CA00FF60067A0279DFE4227A0279E820D5040F
:1002DA007A0279E3224E614E002B494E46002D499F
:1002EA004E4600E47A08F608DAFC7B00740722E836
:1002FA00C0E0ECC0E0EDC0E0EEC0E0EFC0E0EA75BF
:10030A00F010A4CAABF075F04DA42BFBE435F0FC59
:10031A00EA2410FAEB34C5FBEC34D9FCEDC2E7FF52
:10032A0075F056A4F42411C5F0F434C58FF0A42A4C
:10033A00E5F03BE43CF620E7141204E5D0E0FFD0F8
:10034A00E0FED0E0FDD0E0FC12012F8014F404128C
:10035A0004E5D0E0FFD0E0FED0E0FDD0E0FC1200E2
:10036A0026D0E0F8E6FAEDD2E7CD33EC332482FB6F
:10037A00E4C3CF33CFCE33CECD33CD33DBF37B07DC
:10038A0075F00A846004F6081B0AE5F0F6088FF097
:10039A00740AA4FFACF08EF0740AA42CFEACF050E0
:1003AA00010C8DF0740AA42CFDE435F0F608DBDEAE
:0303BA00740722A3
:1003BD00020276E86480F8E933E83360110460F0F6
:1003CD00ED33EC337009E8FCE9FDEAFEEBFF2204A6
:1003DD0060DED3EB9FEA9EE99DE8C2E78CF0C2F7A1
:1003ED0095F0400CE8CCF8E9CDF9EACEFAEBCFFB6D
:1003FD0012024185D0F05804700320D5B3E8047083
:10040D00075002B2D502028092D5EC0460F7E4CC1D
:10041D00C0E0C398F8603B94186008400DD0E0FB35
:10042D00020258E4FBFAC9FC8028E830E406E4C96E
:10043D00FBE4CAFCE830E305E4C9CACBFCE8540789
:10044D006010F8C3E913F9EA13FAEB13FBEC13FC94
:10045D00D8F130F52FC3E49CFCEF9BFFEE9AFEED37
:10046D0099FDD0E0FBEF4E4D4C701222DB030202E2
:10047D007DEC2CFCEF33FFEE33FEED33FDED30E77D
:10048D00EB020258EF2BFFEE3AFEED39FDD0E0FB0B
:10049D0050130BBB0003020280ED13FDEE13FEEFB4
:0804AD0013FFEC13FC020258DE
:1004B5003F8000004120000042C80000447A00004F
:1004C500461C400047C35000497424004B189680D1
:1004D5004CBEBC205A0E1BCA6753C21C749DC5AEC8
:1004E500FB60065407601C2323120513EB54386088
:1004F500091204FF12050E120026ECF8EDF9EEFACA
:10050500EFCB22EB12050E80F1543803241C900426
:10051500B5FE93FC0EEE93FD0EEE930ECE93FF22E9
:10052500BB010689828A83E0225002E722BBFE02D4
:09053500E32289828A83E4932207
:10053E00BB010CE58229F582E5833AF583E0225072
:10054E0006E92582F8E622BBFE06E92582F8E222BC
:0D055E00E58229F582E5833AF583E49322D6
:10056B00BB010689828A83F0225002F722BBFE016F
:02057B00F32269
:0E057D00C3E49FFFE49EFEE49DFDE49CFC228F
:10058B00FAE6FB0808E6F925F0F618E6CA3AF62271
:10059B00D083D082F8E4937012740193700DA3A3EF
:1005AB0093F8740193F5828883E473740293686003
:0605BB00EFA3A3A380DF03
:100C0900EFB40A07740D120C14740A309811A899DC
:100C1900B8130CC2983098FDA899C298B811F6304B
:070C290099FDC299F5992223
:100BB700120525601CFF09E970010AC0E0EAC0E0E0
:100BC700EBC0E0120C09D0E0FBD0E0FAD0E0F980EE
:0A0BD700DF7F0A120C09E4FEFF2282
:00000001FF
