:1000AA00C0F9A4B0999282F880908883C6A1868EFE
:10005500120093D2B600C2B600D2B6AB0AAD09AF54
:10006500081200037590FFD2B700C2B700AF90D257
:10007500B7EF75F06484F508EF75F00A8475F00A3A
:0E0085008485F009EF75F00A8485F00A80C5C5
:0D00BA00EFD3940040077D6EDDFE1F80F344
:0100C7002216
:10009300E4F580D2A775803FC2A7F580D2A6900071
:0700A300AA93F580C2A6221A
:10000300AC05E4F580D2A7758001C2A7F580D2A61E
:10001300EF9000AA93F580C2A67F057E001200BA76
:10002300E4F580D2A7758002C2A7F580D2A6EC932F
:10003300F580C2A67F051200BAE4F580D2A77580C9
:1000430004C2A7F580D2A6EB93F580C2A67F050272
:0200530000BAF1
:030000000200C833
:0C00C800787FE4F6D8FD75810A0200552F
:00000001FF
