:0300000002000EED
:0C000E00787FE4F6D8FD75810C020080BC
:1000800012001EAB09AD08AF0C1200451200D5805E
:01009000F27D
:10009100C0F9A4B0999282F880908883C6A1868E17
:10001E00D290D2AFD2A9D2AB758911D28CD28E75B5
:10002E008D4B758BFD758C4B758AFDE4F50AF50BC2
:07003E00F508F509F50C229D
:03000B000200E010
:0900E000758C4B758AFD050A328E
:0B00CA00E50AB40405E4F50AB2902238
:03001B000200E9F7
:0900E900758D4B758BFD050B3282
:10006B00E50BB41405E4F50B0509E509B40A05E441
:05007B00F50905082253
:0F00A100EF20E003ED8001EB90009193F58022BA
:0C00BE00EF20E004758001227580022212
:0D00B000EFD3940040077E6EDEFE1F80F34C
:0100BD002220
:10004500AE07D2A71200BEC2A7E4F580D2A6AF06BE
:100055001200A1C2A6E4F580050C7F0AFE1200B0CD
:060065001200CA02006B4C
:0B00D500E508B40605E4F509F5082273
:00000001FF
