:0300000002029D5C
:0C029D00787FE4F6D8FD7581150200F8AA
:1002070049204C4F5645204D43552100E68891E73C
:1002170088B1E58D95E78987E69CBA002D2D2D2DB0
:020227002D00A8
:0A026700C2B6C2B48F807F057E008E
:0D027100EFD3940040077D6EDDFE1F80F38B
:01027E00225D
:0F027F00C2B5120267D2B47F05120271C2B42257
:0F028E00D2B5120267D2B47F05120271C2B42238
:10022900BF01047F808013BF02047F90800CBF034D
:10023900047F888005BF04027F98EF2DFF02027FAB
:100003001201BAAB07AA067C277D10120165EF2403
:1000130030F5087C277D10AF03AE021201657E0325
:100023007FE8CFCDCFCECCCE120165EF2430F509DA
:100033007C037DE8AF03AE021201657E007F64CFCF
:10004300CDCFCECCCE120165EF2430F50A7C007DF6
:1000530064AF03AE021201657E007F0ACFCDCFCE1F
:10006300CCCE120165EF2430F50B7C007D0AAF0383
:10007300AE02120165ED2430F50C1201BAAA06ABEB
:10008300077C277D10120165EF2430F50D7C277D59
:1000930010AF03AE021201657E037FE8CFCDCFCE52
:1000A300CCCE120165EF2430F50E7C037DE8AF035F
:1000B300AE021201657E007F64CFCDCFCECCCE12CF
:1000C3000165EF2430F50F7C007D64AF03AE0212AF
:1000D30001657E007F0ACFCDCFCECCCE120165EF76
:1000E3002430F510AE02AF037C007D0A120165EDEA
:0400F3002430F511AF
:0100F70022E6
:10024900D2B77F3012027F12026D7F0C12027F1229
:0E025900026D7F0112027F7F057E000202719E
:1000F800C2A7C2A67F0A7E00120271120249E4FD5D
:100108007F02120229E4FCEC90020793FF600612BA
:10011800028E0C80F2E4FD7F03120229E4FCEC90CD
:10012800021393FF600612028E0C80F2E4FD7F0436
:10013800120229E4FCEC90022393FF600612028E5F
:100148000C80F2E4FDFF120229120003E4FC74089B
:0D0158002CF8E6FF12028E0CBC0AF380E6C4
:10016500BC000BBE0029EF8DF084FFADF022E4CC7E
:10017500F875F008EF2FFFEE33FEEC33FCEE9DEC47
:10018500984005FCEE9DFE0FD5F0E9E4CEFD22ED8D
:10019500F8F5F0EE8420D21CFEADF075F008EF2FD7
:1001A500FFED33FD4007985006D5F0F222C398FDC8
:0501B5000FD5F0EA2265
:1001BA00AC12AD13AE14AF157810EC4D4E4F70045F
:1001CA007CA57DA5C3EC13FCED13FDEE13FEEF1326
:1001DA00FF5010EC64CCFCED644CFDEE644EFEEF77
:1001EA0064CEFFD8DF8C128D138E148F15EE547FD8
:0D01FA00FE228E128F1374A5F514F5152248
:00000001FF
