:0300000002016F8B
:0C016F00787FE4F6D8FD75810902017B61
:10015F00C0F9A4B0999282F880908883C6A1868E48
:08017B0012013212011180FB98
:04014D007F0A7E00A7
:0D015100EFD3940040077E6EDEFE1F80F3AA
:01015E00227E
:10013200E4F509D2A775803FC2A7D2A690015F93CA
:0B014200F580C2A67F057E000201517F
:10011100120003E508640F600B85B008E5B0540FC9
:10012100F50880EFE50990015F93F580D2A6C2A69C
:0101310022AB
:1000030075B0EF85B00853080FE508640F6035122B
:10001300014D85B00853080FE508640F602685B0CD
:1000230008E5082419601A24FC601124FE600814F2
:100033007012E4F509800D750901800875090280C5
:100043000375090375B0DF85B00853080FE508642D
:100053000F603512014D85B00853080FE508640F92
:10006300602685B008E5082429601A24FC60112461
:10007300FE6008147012750904800D750905800867
:10008300750906800375090775B0BF85B008530865
:100093000FE508640F603512014D85B00853080F52
:1000A300E508640F602685B008E5082449601A2432
:1000B300FC601124FE6008147012750908800D7528
:1000C3000909800875090A800375090B75B07F85D6
:1000D300B00853080FE508640F603212014D85B074
:1000E3000853080FE508640F602385B008E508246A
:1000F30089601724FC600F24FE600714700F7509D4
:0E0103000C2275090D2275090E2275090F22B6
:00000001FF
