:0300000002013EBC
:0C013E00787FE4F6D8FD758140020003D4
:10000300758920758DFD758BFDE4F587D28E759806
:0B001300F0D2ACD2AFD201D20080FAD4
:03002300020026B2
:10002600C0E0C0F0C083C082C0D075D000C000C0A0
:0D00360001C002C003C004C005C006C00721
:10004300C298C2ACE59964026004D2AC806DC29DD3
:100053007599023099FDC2993098FDC298309A0281
:100063008055859908E5086401701F30000575996E
:100073000180037599003099FDC2993098FDC298AB
:10008300309A0280321200D98031E5086402701F71
:1000930030010575990280037599003099FDC29965
:1000A3003098FDC298309A02800D120112800C75AF
:0B00B30099803099FDC299D29DD2AC1B
:1000BE00D007D006D005D004D003D002D001D00096
:0B00CE00D0D0D082D083D0F0D0E03240
:10011200C201E4FFFE74312EF8E6F5992FFF309903
:10012200FDC2990EBE10EE8F993099FDC29930989A
:0B013200FDC298E59970DBD29DD2ACB5
:01013D00229F
:1000D900C200E4FFFE3098FDC29874212EF8A6995B
:1000E90074212EF8E62FFF0EBE10EA3098FDC29853
:1000F900E599B50705E4F599800A7599FF3099FDE9
:08010900C29980CED29DD2AC58
:0101110022CB
:00000001FF
