:030000000200C833
:0C00C800787FE4F6D8FD75810802000383
:1000910049204C4F5645204D435521004F487E2065
:0500A100594553210048
:0D007600E50893FF7E001200B77F057E00B5
:0D008300EFD3940040077D6EDDFE1F80F37B
:01009000224D
:1000A600C2B58F8012007FD2B47F05120083C2B41E
:0100B6002227
:1000B700D2B58F8012007FD2B47F05120083C2B4FD
:0100C7002216
:10005400C2A6C2A7C2B47F387E001200A67F0C7E5F
:10006400001200A67F067E001200A67F017E000219
:0200740000A6E4
:100003001200547F907E001200A6E4F50890009140
:100013001200760508E508C3940B40F17FD07E00FB
:100023001200A6E4F50890009D1200760508E50885
:10003300C3940840F1E4F5087F187E001200A67F00
:10004300C87E001200830508E508C3941040E980C8
:01005300FEAE
:00000001FF
