:030000000200D229
:0C00D200787FE4F6D8FD7581170200A2CB
:1000C2006D6173746572207472616E736D69740010
:0900DE007599FF3099FDC29922C9
:100003007599023099FDC2993098FDC298E5996FB0
:1000130060028016C29B8D993099FDC2993098FD7C
:10002300C298AB99EB30E307D29B1200DE80D1BDBF
:1000330001CEEB30E029E4FCFEEE9000C293F5998B
:100043002CFC3099FDC2990EBE10EE8C993099FDAF
:10005300C2993098FDC298E59970DBD29BFF22EBE1
:1000630030E19DE4FCFE3098FDC29874082EF8A69A
:100073009974082EF8E62CFC0EBE10EA3098FDC2E7
:1000830098E599B5040AE4F5993099FDC299800A77
:0E0093007599FF3099FDC29980C9D29B7F00FC
:0100A100223C
:1000A200758920758BFD758DFDE4F587D28E759867
:1000B200F87D017F021200030D7F0212000380FE11
:00000001FF
