:0300000002018F6B
:0C018F00787FE4F6D8FD75810A02017546
:040153007F0A7E00A1
:10015700D3EF9400EE940040147D6E7C00ED1D708B
:0D016700011CED4C70F7EF1F70E61E80E3E9
:010174002268
:100003007590FEE59054F0F50864F06047120153D3
:100013007590FEE59054F0F50864F060278590082C
:10002300E5082482601B24C0601224E0600924F0E8
:100033007012E4F509800D750904800875090880BC
:100043000375090CE50854F064F060058590088099
:10005300F3AF09227590FDE59054F0F50864F06064
:10006300471201537590FDE59054F0F50864F06074
:1000730027859008E5082483601B24C0601224E0D0
:10008300600924F07012750901800D750905800857
:10009300750909800375090DE50854F064F06005DE
:1000A30085900880F3AF09227590FBE59054F0F535
:1000B3000864F060471201537590FBE59054F0F526
:1000C3000864F06027859008E5082485601B24C038
:1000D300601224E0600924F07012750902800D7526
:1000E3000906800875090A800375090EE50854F0AE
:1000F30064F0600585900880F3AF09227590F7E5F9
:100103009054F0F50864F060461201537590F7E5DA
:100113009054F0F50864F06027859008E508248979
:10012300601B24C0601224E0600924F0701275097A
:1001330003800D750907800875090B800375090F86
:0F014300E50854F064F0600585900880F3AF097B
:01015200228A
:08019B008F993099FDC29922F1
:10017500758920758DFD758BFD759840D2AFD2AC14
:0A018500D28E12000312019B80F8D5
:00000001FF
