:10013C00C0F9A4B0999282F880908883C6A1868E6B
:080003001200781200F680FBE8
:040119007F0A7E00DB
:0D011D00EFD3940040077E6EDEFE1F80F3DE
:01012A0022B2
:10007800D2A7758001C2A7E4F580D2A690013C936F
:10008800F580C2A6E4F5807F05FE12011DD2A77592
:100098008002C2A7E4F580D2A693F580C2A6E4F553
:1000A800807F05FE12011DE4F508F509F50AF50B38
:0E00B800758901D2AFD2A9758C4B758AFD22D5
:10000E0020B01F12011920B019050BE50BB40A051B
:10001E00E4F50B050AE50AB40605E4F50AF50B301E
:10002E00B0FD20B12512011920B11FE50A600BE5C4
:10003E000B7007150A750B09800DE50B6004150B87
:10004E008005E4F50BF50A30B1FD20B20E12011950
:10005E0020B205E4F50AF50B30B2FD20B70B120104
:0A006E001920B70530B7FDB28C224F
:10012B00EF20E004E50A8002E50B90013C93F5809B
:01013B0022A1
:0C014C00EF20E004758001227580022283
:1000F60012000ED2A7AF0912014CC2A7E4F580D2B6
:10010600A6AF0912012BC2A6E4F58005097F05FEFC
:0301160002011DC6
:03000B000200C62A
:1000C600C0E0C0D0758C4B758AFD0508E508B414F0
:1000D6001A750800050BE50BB40A05050A750B0031
:1000E600E50AB40606750B00750A00D0D0D0E032DA
:03000000020158A2
:0C015800787FE4F6D8FD75810B020003EF
:00000001FF
