:0300000002000EED
:0C000E00787FE4F6D8FD758120020055D3
:1001FA00C0F9A4B0999282F880908883C6A1868EAD
:02022800C10013
:05000300120008D2A16B
:0100080022D5
:10018800D3EF9400EE940040147D6E7C00ED1D705A
:0D019800011CED4C70F7EF1F70E61E80E3B8
:0101A5002237
:0A020A00D2A0120003C2A0020008F7
:0A021400C2A0120003D2A0020008ED
:0801680012020A7FA01201A699
:10017000D2A112000830A00BE50AC394FF50040579
:080180000A80F2C2A10200088E
:0A021E00D2A0120008D2A1020008CD
:1001A600E4FEEF25E0FFC2A112000892A0120003B0
:0E01B6000EBE08EEC2A1120008D2A002000880
:10011E00C2A1120008D2A0120008E4FED2A1120061
:10012E0008EF25E0FDA2A0E4334DFFC2A1120008A6
:04013E000EBE08E801
:01014200229A
:1001E200AC07120168AF041201A6120170AF05122A
:0801F20001A6120170020214C3
:0201C400AD0785
:1001C600120168AF051201A612017012020A7FA180
:0C01D6001201A612017012011E02021498
:1000E300AB05D2A7758001C2A7E4F580D2A6EF9035
:1000F30001FA93F580C2A6E4F5807F05FE1201881C
:10010300D2A7758002C2A7E4F580D2A6EB93F5804F
:0B011300C2A6E4F5807F05FE02018813
:10009A0012021E7F021201C48F09E509D39464403B
:1000AA0003E4F509758901D2AFD2A9758C3C758A2A
:1000BA00AFD28CE4FDFF1200E3E50975F00A84FF74
:1000CA00E50975F00A84ADF01200E33000EBC200D6
:0900DA00AD097F021201E280E091
:03000B00020143AC
:10014300C0E0C0D0758C3C758AAF0508E508B414CF
:100153000F7508000509D200E509B46403750900A9
:05016300D0D0D0E03215
:10001A0002009AE493A3F8E493A34003F68001F262
:10002A0008DFF48029E493A3F85407240CC8C333E7
:10003A00C4540F4420C8834004F456800146F6DFB6
:10004A00E4800B0102040810204080900228E47E1C
:10005A00019360BCA3FF543F30E509541FFEE493AB
:10006A00A360010ECF54C025E060A840B8E493A372
:10007A00FAE493A3F8E493A3C8C582C8CAC583CA9D
:10008A00F0A3C8C582C8CAC583CADFE9DEE780BE55
:01022A0000D3
:00000001FF
